:100000000C9434000C9451000C9451000C94510049
:100010000C9451000C9451000C9451000C9451001C
:100020000C9451000C9451000C9451000C9451000C
:100030000C9451000C9451000C9451000C945100FC
:100040000C9451000C9451000C9451000C945100EC
:100050000C9451000C9451000C9451000C945100DC
:100060000C9451000C94510011241FBECFEFD8E026
:10007000DEBFCDBF11E0A0E0B1E0ECE7FDE202C0E1
:1000800005900D92A035B107D9F727E0A0E5B1E0C2
:1000900001C01D92A73DB207E1F70E94DA150C944A
:1000A000BC160C940000C1E088EB9BE00E94D506D2
:1000B0002091000130910101409102015091030112
:1000C000A3E0B0E00E9473166093000170930101F9
:1000D00080930201909303010E943913813011F043
:1000E000C09350010E947114813011F0C0935001EF
:1000F0000E94D813813011F0C09350010E9449032F
:10010000813011F0C0935001809150018111CCCF0A
:100110000E94CD00C9CF0C94B6108FEF80930401DC
:1001200084B90E945A0580E285B92FEF37EA91E63B
:10013000215030409040E1F700C0000015B82FEF8B
:1001400037EA91E6215030409040E1F700C00000CE
:10015000EBCF1F93CF93DF938230D8F4162FC1E0FB
:10016000D0E001C0CC0F8A95EAF70E945A05809131
:100170000401113019F4C095C82301C0C82BC093E5
:1001800004018091040185B9DF91CF911F910C94F6
:100190002B06DF91CF911F9108950E945A0580E2AE
:1001A00085B92FEF39E698E1215030409040E1F7D2
:1001B00000C0000015B82FEF39E698E1215030401B
:1001C0009040E1F700C00000EBCFCF92DF92EF92BA
:1001D000FF92CF936B017C01C42F0FB6F8940F925E
:1001E00040E061E08C2F0E94750B90935401809346
:1001F000530140E061E08C2F0E94750B90935201F7
:1002000080935101A701960184E0220F331F441F00
:10021000551F8A95D1F760E07DE281E391E00E946D
:100220003216DA01C9010197A109B1098093C4000E
:10023000892F9A2FAB2FBB278093C50088E9809325
:10024000C10086E88093C2000F900FBE80E090E06E
:10025000CF91FF90EF90DF90CF9008958091530160
:10026000909154010E94810C91E0811101C090E0B5
:10027000892F0895CF93DF931F92CDB7DEB769839F
:1002800020E0BE016F5F7F4F80915101909152013C
:100290000E94980B813031F49091C100906290934C
:1002A000C10001C080E00F90DF91CF9108950FB69B
:1002B000F8940F92E1ECF0E080818F7D8083808163
:1002C0008F7780830F900FBE08951F920F920FB605
:1002D0000F9211242F933F934F935F936F937F93CC
:1002E0008F939F93AF93BF93EF93FF93CF93DF933E
:1002F00000D0CDB7DEB719828091C6008A8320E096
:10030000AE014F5F5F4FBE016E5F7F4F8091530123
:10031000909154010E942E0C898181110E94221516
:100320000F900F90DF91CF91FF91EF91BF91AF911F
:100330009F918F917F916F915F914F913F912F91FD
:100340000F900FBE0F901F9018951F920F920FB62F
:100350000F9211242F933F934F935F936F937F934B
:100360008F939F93AF93BF93EF93FF93CF93DF93BD
:1003700000D0CDB7DEB7AE014F5F5F4FBE016E5FFD
:100380007F4F80915101909152010E942B0E81303C
:1003900021F48A818093C60005C08091C1008F7DC1
:1003A0008093C1000F900F90DF91CF91FF91EF915B
:1003B000BF91AF919F918F917F916F915F914F917D
:1003C0003F912F910F900FBE0F901F901895F5E061
:1003D0000F2EF6E01F2EF7E02F2EF8E03F2EF9E06B
:1003E0004F2EFAE05F2EFBE06F2EFCE07F2EFDE04B
:1003F0008F2EFEE09F2EFFE0AF2EF0E1BF2EF1E149
:10040000CF2EF2E1DF2EF3E1EF2EF4E1FF2E05E136
:1004100016E127E138E149E15AE16BE17CE18DE148
:100420009EE1AFE1B0E2E1E2F5E0F01100925501AA
:10043000F6E0F11100925501F7E0F211009255013A
:10044000F8E0F31100925501F9E0F4110092550122
:10045000FAE0F51100925501FBE0F611009255010A
:10046000FCE0F71100925501FDE0F81100925501F2
:10047000FEE0F91100925501FFE0FA1100925501DA
:10048000F0E1FB1100925501F1E1FC1100925501E0
:10049000F2E1FD1100925501F3E1FE1100925501C8
:1004A000F4E1FF1100925501F5E1F01300925501BE
:1004B000F6E1F11300925501F7E1F21300925501B4
:1004C000F8E1F31300925501F9E1F413009255019C
:1004D000FAE1F51300925501FBE1F6130092550184
:1004E000FCE1F71300925501FDE1F813009255016C
:1004F000FEE1F91300925501FFE1FA130092550154
:10050000F0E2FB1300925501F1E2FE130092550157
:100510005ECFF1E00F2EF2E01F2EF3E02F2EF4E07D
:100520003F2EF5E04F2EF6E05F2EF7E06F2EF8E05D
:100530007F2EF9E08F2EFAE09F2EFBE0AF2EFCE03D
:10054000BF2EFDE0CF2EFEE0DF2EFFE0EF2EF0E12C
:10055000FF2E01E112E123E134E145E156E167E1DB
:1005600078E189E19AE1ABE1BCE1EDE1F1E0F01184
:1005700000925501F2E0F11100925501F3E0F21101
:1005800000925501F4E0F31100925501F5E0F411E9
:1005900000925501F6E0F51100925501F7E0F611D1
:1005A00000925501F8E0F71100925501F9E0F811B9
:1005B00000925501FAE0F91100925501FBE0FA11A1
:1005C00000925501FCE0FB1100925501FDE0FC1189
:1005D00000925501FEE0FD1100925501FFE0FE1171
:1005E00000925501F0E1FF1100925501F1E1F01385
:1005F00000925501F2E1F11300925501F3E1F2137B
:1006000000925501F4E1F31300925501F5E1F41362
:1006100000925501F6E1F51300925501F7E1F6134A
:1006200000925501F8E1F71300925501F9E1F81332
:1006300000925501FAE1F91300925501FBE1FA131A
:1006400000925501FCE1FB1300925501FDE1FE1300
:10065000009255015ECFEF92FF920F93E12CF12CA7
:1006600000E020E030E045E550E06CE171E087EE2D
:1006700091E00E94DB0320E030E045E550E061E2DC
:1006800071E089E892E00E94DB030F91FF90EF9008
:10069000089581E090915501911180E00895E091D5
:1006A0007C01F0917D018081811103C08FEF9FEF6C
:1006B0000CC0E0917C01F0917D010580F681E02D78
:1006C0000680F781E02D8281938190935C01809375
:1006D0005B0108950F931F93CF93DF93EC0100917B
:1006E0006401109165018091560190915701029625
:1006F0000E94DE0FC00FD11FE0915601F09157010B
:10070000D383C2836091560170915701C017D107FE
:1007100060F480917A0190917B016E5F7F4FDF9151
:10072000CF911F910F910C94A60F80917C01909115
:100730007D016E5F7F4F0E94A60F80915B019091BB
:100740005C01C817D90720F4D0935C01C0935B010A
:10075000DF91CF911F910F910895809167018823B8
:1007600009F10FB6F8940F92E0916D01F0916E01CE
:10077000C681D781CE0102960E94DE0F809166016C
:100780008150809366018091670181508093670159
:100790000F900FBE8F89988D0E94FA11CE010E9492
:1007A000FA11DBCF80919001823010F00E94221567
:1007B0000E948B00D2CF4F925F926F927F928F9266
:1007C0009F92AF92BF92CF92DF92EF92FF920F93E0
:1007D000CF93DF934C016B015A012901CA010E949A
:1007E000C8113C01892B09F4D0C086E290E00E9438
:1007F000C811EC01009789F0788E6F8A21E0A21A67
:10080000B108A60CB71CC114D104C9F0BC01675EC5
:100810007F4FF601C601089607C0C3010E94FA1176
:10082000B4C0E817F90749F09F014191DB014D93EE
:10083000BD01D9012C912111F4CF18A201C0198E4C
:10084000043008F003E00E8B6E01B2E0CB0ED11C39
:10085000C6010E94810FCE010C960E94810FD9879C
:10086000C88784E090E0801B91099D878C87DB8B93
:10087000CA8B19A21AA21BA21CA21DA2A201B4011A
:10088000C5010E947A1499838883E114F10419F058
:10089000F701D183C0830FB6F8940F92809166015F
:1008A0008F5F809366018091560190915701892B4B
:1008B000A9F5D0935701C09356018091660181300C
:1008C000E9F580E991E00E94730F89E991E00E94C7
:1008D000730F82EA91E00E94730F8BEA91E00E940D
:1008E000730F87E891E00E94730F8EE791E00E94FA
:1008F000730F81E791E00E94730F88E691E00E94F8
:10090000730F87E891E090937D0180937C018EE7DF
:1009100091E090937B0180937A0110C080916201F5
:1009200081110CC0E0915601F091570196898E8992
:10093000891720F0D0935701C093560180915D0133
:100940008F5F80935D018E8990916301981710F4F9
:1009500080936301F9E08F9FC0011124B601805795
:100960009E4F0E94850F0F900FBE809162018823D9
:1009700051F0E0915601F091570196898E899817B0
:1009800010F40E94221581E001C08FEFDF91CF911A
:100990000F91FF90EF90DF90CF90BF90AF909F901E
:1009A0008F907F906F905F904F9008950F931F935B
:1009B000CF93DF93EC010FB6F8940F92892B21F4BB
:1009C000C0915601D09157018E010E5F1F4FC80193
:1009D0000E94DE0F8C899D89892B21F0CE010C9617
:1009E0000E94DE0F80915D018F5F80935D01809199
:1009F000560190915701C817D90759F4B80188E6F4
:100A000091E00E94850F809167018F5F809367015D
:100A10000EC0809166018150809366018F89988D08
:100A20000E94FA11CE010E94FA110E944F030F900A
:100A30000FBE80916201882349F080915601909108
:100A40005701C817D90711F40E942215DF91CF91E1
:100A50001F910F910895EF92FF920F9389E5E82E71
:100A600081E0F82E00E020E030E045E550E066E26D
:100A700071E08DEA93E00E94DB03813091F4F894F9
:100A80002FEF3FEF30935C0120935B018093620175
:100A900010926501109264010F91FF90EF900C94F9
:100AA000E6140F91FF90EF900895F8941092620170
:100AB0000C942115809158018F5F809358010895FF
:100AC0000FB6F8940F9280916401909165010F9098
:100AD0000FBE089580916401909165010895809101
:100AE00066010895009721F4809156019091570175
:100AF00049960895CF92DF92EF92FF920F931F9342
:100B0000CF93DF9380915801811191C000916401CE
:100B1000109165010F5F1F4F1093650100936401F1
:100B200001151105B9F480917C0190917D0120910E
:100B30007A0130917B0130937D0120937C01909369
:100B40007B0180937A0180915E018F5F80935E01CB
:100B50000E944F0380915B0190915C01C0E00817F7
:100B6000190708F44FC0D9E0E0917C01F0917D01B4
:100B70008081811103C08FEF9FEF11C0E0917C0154
:100B8000F0917D010580F681E02DE680F780D701A8
:100B900012968D919C9113970817190728F490933A
:100BA0005C0180935B012EC06701B2E0CB0ED11CCB
:100BB000C6010E94DE0FF70184899589892B21F0F7
:100BC000C7010C960E94DE0FD70156968C9190912A
:100BD0006301981710F480936301D89FC00111241A
:100BE000B60180579E4F0E94850FE0915601F0910B
:100BF0005701D70156969C918689981708F4B4CF6F
:100C0000C1E0B2CFE0915601F0915701E689B9E019
:100C1000EB9FF0011124E057FE4F8081823008F0F5
:100C2000C1E080915F01882361F0C1E00AC080913A
:100C30006001909161010196909361018093600140
:100C4000C0E08C2FDF91CF911F910F91FF90EF901B
:100C5000DF90CF900895EF92FF920F931F93CF9361
:100C6000DF930FB6F8940F928091580181508093D2
:100C7000580180915801882311F080E056C080917E
:100C800066018823D1F3C0E0D0E089E0F82EEE249D
:100C9000E39480917101882351F1E0917601F09104
:100CA0007701C681D781CE010C960E94DE0F8E019E
:100CB0000E5F1F4FC8010E94DE0F8E899091630165
:100CC000981710F480936301F89EC0011124B801B5
:100CD00080579E4F0E94850FE0915601F091570179
:100CE0009E8986899817A8F2E0925F01D2CFCD2B1A
:100CF00011F00E944F03C0916001D09161012097D3
:100D000061F011E00E947A05811110935F01219733
:100D1000C9F7109261011092600180915F018823F0
:100D200009F4ABCF0E94221581E00F900FBEDF9136
:100D3000CF911F910F91FF90EF9008950F931F9304
:100D4000CF93DF938C01EB010E945A05409164011F
:100D500050916501F80120813181C9018C0F9D1FDF
:100D60004217530720F48217930740F403C08217F9
:100D7000930730F021E04817590718F020E001C030
:100D800021E0F80191838083222321F0841B950BBD
:100D90000E946A030E942B06811102C00E94221544
:100DA000DF91CF911F910F910895CF93DF93EC01C5
:100DB000892B19F40E94221509C00E945A05CE0100
:100DC0000E946A030E942B068823A1F3DF91CF9132
:100DD0000895CF93DF93EC010E945A058091600142
:100DE00090916101C80FD91FD0936101C093600138
:100DF000DF91CF910C942B0680915801882321F02C
:100E000081E080935F01089510925F0180916301FA
:100E100069E0482F50E0649F9001659F300D1124D8
:100E2000F901E057FE4F9081911102C08150F1CF3E
:100E3000A181B28112960D90BC91A02DB283A183A5
:100E40002D563E4FA217B30731F412962D913C91C7
:100E500013973283218399E0949FF001959FF00DC1
:100E60001124E057FE4F0180F281E02D2681378169
:100E70003093570120935601809363010895CF93D7
:100E8000DF93EB016091560170915701645F7F4FD2
:100E90000E94A60FCE01DF91CF910C946A03CF93ED
:100EA000DF93EA01E0915601F09157017068758770
:100EB00064876091560170915701645F7F4F0E9473
:100EC000850FCE01DF91CF910C946A030F931F938E
:100ED000CF93DF93DC011596ED91FC911697C681B7
:100EE000D7818E01045F1F4FC8010E94DE0F8091E1
:100EF0005801811114C00A501109C8010E94DE0F67
:100F00008E8990916301981710F480936301B9E082
:100F10008B9FC0011124B80180579E4F03C0B801B8
:100F200081E791E00E94850FE0915601F091570111
:100F30009E898689891720F481E080935F0101C032
:100F400080E0DF91CF911F910F9108950F931F9330
:100F5000CF93DF937068FC0171836083C681D78172
:100F60000E94DE0F8E010E5F1F4FC8010E94DE0F30
:100F70008E8990916301981710F480936301F9E0D2
:100F80008F9FC0011124B80180579E4F0E94850F8A
:100F9000E0915601F09157019E898689891718F4CE
:100FA00081E080935F01DF91CF911F910F910895B0
:100FB0000FB6F8940F9220915E01FC0120832091DE
:100FC000640130916501328321830F900FBE089533
:100FD00020915E01FC012083209164013091650124
:100FE0003283218308950FB6F8940F922091640103
:100FF00030916501DC0111964D915C911297E09161
:101000005E01FC91FE1719F02417350790F4241B9C
:10101000350BFB01408151812417350740F4421BF9
:10102000530B518340830E94E80780E003C0118284
:10103000108281E00F900FBE089581E080935F01E0
:101040000895E0915601F091570184859585E091CE
:101050005601F0915701A0915601B0915701569653
:101060004C9124E030E0241B310935872487089512
:101070000F931F93182FCB010FB6F8940F92E091A6
:101080005601F091570141A152A163A174A1452BD2
:10109000462B472B61F4E0915601F091570121E076
:1010A00025A3009721F00E946A030E9422150F9049
:1010B0000FBE0FB6F8940F92E0915601F0915701D0
:1010C00061A172A183A194A16115710581059105AA
:1010D000A9F0E0915601F0915701112329F011A2D6
:1010E00012A213A214A20AC08B019C010150110983
:1010F0002109310901A312A323A334A3E0915601CE
:10110000F091570115A20F900FBE1F910F910895F6
:101110004F925F926F927F928F929F92AF92BF9207
:10112000EF92FF920F931F9349015A010FB6F89463
:101130000F92E0915601F091570125A1223031F133
:10114000E0915601F091570121A132A143A154A190
:101150002B013C014094509460947094D301C201DF
:1011600082239323A423B52381A392A3A3A3B4A38F
:10117000E0915601F091570181E085A3E114F1045B
:1011800029F0C7010E946A030E9422150F900FBE2A
:101190000FB6F8940F920115110569F0E091560110
:1011A000F091570181A192A1A3A1B4A1F80180837C
:1011B0009183A283B383E0915601F091570185A1F9
:1011C0008230C1F4E0915601F091570141A152A142
:1011D00063A174A1D501C40180959095A095B095A7
:1011E00084239523A623B72381A392A3A3A3B4A307
:1011F00081E001C080E0E0915601F091570115A215
:101200000F900FBE1F910F91FF90EF90BF90AF9086
:101210009F908F907F906F905F904F9008950F9365
:101220001F93CF93DF93FC010FB6F8940F92011533
:10123000110549F081A192A1A3A1B4A1E80188837D
:101240009983AA83BB8335A182E085A3223089F0EC
:1012500058F4213001F581A192A1A3A1B4A1482B9A
:10126000592B6A2B7B2B13C0233089F0243069F073
:1012700012C081A192A1A3A1B4A10196A11DB11D8B
:1012800081A392A3A3A3B4A306C0323049F141A322
:1012900052A363A374A3313009F5EF018F010E5FF0
:1012A0001F4FC8010E94DE0F8E899091630198172D
:1012B00010F48093630129E0829FC0011124B801DA
:1012C00080579E4F0E94850FE0915601F091570183
:1012D0009E898689891710F40E94221581E001C039
:1012E00080E00F900FBEDF91CF911F910F91089575
:1012F000EF92FF920F931F93CF93DF93FC010115A1
:10130000110549F081A192A1A3A1B4A1E8018883AC
:101310009983AA83BB8335A182E085A3223089F01B
:1013200058F4213001F581A192A1A3A1B4A1482BC9
:10133000592B6A2B7B2B13C0233089F0243069F0A2
:1013400012C081A192A1A3A1B4A10196A11DB11DBA
:1013500081A392A3A3A3B4A306C03230D9F141A3C1
:1013600052A363A374A3313011F081E034C0EF01C4
:1013700080915801811115C08F010E5F1F4FC80168
:101380000E94DE0F8E8990916301981710F480936C
:101390006301E9E08E9FC0011124B80180579E4F80
:1013A00005C0BF01645F7F4F81E791E00E94850F18
:1013B000E0915601F09157019E8986898917A8F618
:1013C000E114F10419F081E0E701888381E0809362
:1013D0005F0101C080E0DF91CF911F910F91FF90DD
:1013E000EF900895EF92FF920F931F93CF93DF93A7
:1013F000FC0125A182E085A381A192A1A3A1B4A1B2
:101400000196A11DB11D81A392A3A3A3B4A3213072
:10141000A1F58B01EF0180915801811116C07F0168
:1014200022E0E20EF11CC7010E94DE0F8E8990912E
:101430006301981710F480936301E9E08E9FC00167
:101440001124B70180579E4F05C0BF01645F7F4FD5
:1014500081E791E00E94850FE0915601F0915701DC
:101460009E898689891748F40115110519F081E0D4
:10147000F801808381E080935F01DF91CF911F911C
:101480000F91FF90EF900895009721F480915601FD
:10149000909157010FB6F8940F92FC0125A12230CC
:1014A00019F415A281E001C080E00F900FBE0895ED
:1014B000CF92DF92EF92FF920F931F93009721F448
:1014C00080915601909157010FB6F8940F92E091D8
:1014D0005601F0915701C1A0D2A0E3A0F4A0FC01F5
:1014E00001A112A123A134A140955095609570955A
:1014F000402351236223732341A352A363A374A304
:101500000F900FBEC701B6011F910F91FF90EF9092
:10151000DF90CF9008950FB6F8940F92FC01928D52
:101520000F900FBE81E0911180E008950F931F93FB
:10153000CF93DF93EC01042F1A8D4C8D4423B1F12E
:1015400050E0011115C08A819B810E9495162C8D57
:101550008A819B81820F911D9B838A832C813D818F
:101560008217930718F1888199819B838A831EC013
:101570008E819F810E9495168C8D90E0919581952A
:1015800091092E813F81280F391F3F832E83488187
:1015900059812417350730F42C813D81820F931F28
:1015A0009F838E83023011F4111111501F5F1A8F27
:1015B00080E0DF91CF911F910F910895FC01CB0145
:1015C000448D4423A1F050E026813781240F351F3C
:1015D00037832683648175812617370720F02081A1
:1015E000318137832683668177810C94951608951F
:1015F000EF92FF921F93CF93DF93EC010FB6F89415
:101600000F921E8D7C0181E1E80EF11C11165CF435
:101610008989882341F0C7010E94660781110E94D1
:101620001D081150F3CF8FEF8E8F0F900FBE0FB6A6
:10163000F8940F921D8D7E0188E0E80EF11C1116C2
:101640005CF48885882341F0C7010E9466078111F8
:101650000E941D081150F3CF8FEF8D8F0F900FBE9A
:10166000DF91CF911F91FF90EF900895CF93DF937B
:10167000EC010FB6F8940F92488159818B8D7C8DC7
:101680009A01879F200D311D11243D832C831A8ED2
:101690005B834A8390E00197789F9001799F300D9A
:1016A0001124CA01820F931F9F838E838FEF8D8F2A
:1016B0008E8F61110CC08885882389F0CE01089631
:1016C0000E946607882359F00E94221508C0CE01A7
:1016D00008960E94730FCE0141960E94730F0F90DF
:1016E0000FBE81E0DF91CF9108950F931F93CF93A9
:1016F000DF93082F162F869FC00111244F960E945A
:10170000C811EC01009771F0111103C0998388830F
:1017100003C04F96998388830B8F1C8F61E0CE01A5
:101720000E94360BCE01DF91CF911F910F9108954A
:10173000AF92BF92CF92DF92FF920F931F93CF93FE
:10174000DF9300D000D01F92CDB7DEB78C016B01C4
:101750005D834C83F22E80E0580198E0A90EB11C05
:101760000FB6F8940F92F801228D938D291718F077
:10177000F2E0FF1214C04F2DB601C8010E94960A74
:10178000F8019189992321F0C80141960E946607CA
:1017900081110E9422150F900FBE81E050C02C8154
:1017A0003D81232B19F40F900FBE48C0811104C056
:1017B000CE0101960E94E8070F900FBE0E945A05C5
:1017C0000FB6F8940F92F801858D8F3F09F4158EAE
:1017D000F801868D8F3F09F4168E0F900FBEBE0163
:1017E0006C5F7F4FCE0101960E94F307811121C0EB
:1017F0000FB6F8940F92F801928D0F900FBE838D63
:10180000981311C06C817D81C5010E943F07C801FA
:101810000E94F80A0E942B06882311F081E0A0CFD5
:101820000E942215FBCFC8010E94F80A0E942B06D5
:10183000F5CFC8010E94F80A0E942B0680E00F90A5
:101840000F900F900F900F90DF91CF911F910F91FC
:10185000FF90DF90CF90BF90AF900895EF92FF92EE
:101860001F93CF93DF93EC019A8D8B8D981710F017
:101870002230E9F47A011E8D8A8D422FCE010E941A
:10188000960A1F3F81F48989882379F0CE01419619
:101890000E946607882349F0E114F10431F081E0E9
:1018A000F701808305C01F5F1E8F81E001C080E0CB
:1018B000DF91CF911F91FF90EF900895CF93DF9329
:1018C000FC01928D838D9817C0F4868D9F5F928F57
:1018D0008F3F79F48189882371F0EB01CF01419624
:1018E0000E946607882339F0209729F081E08883D9
:1018F00005C08F5F868F81E001C080E0DF91CF91CE
:101900000895AF92BF92CF92DF92FF920F931F93F1
:10191000CF93DF9300D000D01F92CDB7DEB78C01FC
:101920006B015D834C8380E0580191E1A90EB11CED
:101930000FB6F8940F92F801F28CFF20A9F0B601CF
:10194000C8010E94DE0AFA94F801F28E808588238D
:1019500039F0C80108960E94660781110E9422157D
:101960000F900FBE81E050C02C813D81232B19F4D4
:101970000F900FBE48C0811104C0CE0101960E9495
:10198000E8070F900FBE0E945A050FB6F8940F9209
:10199000F801858D8F3F09F4158EF801868D8F3FF4
:1019A00009F4168E0F900FBEBE016C5F7F4FCE0103
:1019B00001960E94F30781111CC0C8010E948B0A86
:1019C000882389F06C817D81C5010E943F07C80191
:1019D0000E94F80A0E942B06882311F081E0A8CF0C
:1019E0000E942215FBCFC8010E94F80A0E942B0614
:1019F000F5CFC8010E94F80A0E942B06C8010E9478
:101A00008B0A882359F380E00F900F900F900F906E
:101A10000F90DF91CF911F910F91FF90DF90CF90AA
:101A2000BF90AF900895EF92FF920F931F93CF93C3
:101A3000DF9300D000D01F92CDB7DEB78C017D833D
:101A40006C8390E0780181E1E80EF11C0FB6F89408
:101A50000F92F801828D882381F08150828F8085DA
:101A6000882339F0C80108960E94660781110E94F8
:101A700022150F900FBE81E050C02C813D81232B99
:101A800019F40F900FBE48C0911104C0CE01019609
:101A90000E94E8070F900FBE0E945A050FB6F894F7
:101AA0000F92F801858D8F3F09F4158EF801868D10
:101AB0008F3F09F4168E0F900FBEBE016C5F7F4FF3
:101AC000CE0101960E94F30781111CC0C8010E943B
:101AD0008B0A882389F06C817D81C7010E943F07B2
:101AE000C8010E94F80A0E942B06882311F091E099
:101AF000ADCF0E942215FBCFC8010E94F80A0E94B8
:101B00002B06F5CFC8010E94F80A0E942B06C801D7
:101B10000E948B0A882359F380E00F900F900F905A
:101B20000F900F90DF91CF911F910F91FF90EF9049
:101B30000895CF92DF92EF92FF920F931F93CF936E
:101B4000DF9300D000D01F92CDB7DEB78C017B01B0
:101B50005D834C8380E0680191E1C90ED11C0FB612
:101B6000F8940F92F801928D9923B9F0C680D7802E
:101B7000B701C8010E94DE0AF801D782C6828189B6
:101B8000882339F0C80141960E94660781110E949E
:101B900022150F900FBE81E050C02C813D81232B78
:101BA00019F40F900FBE48C0811104C0CE010196F8
:101BB0000E94E8070F900FBE0E945A050FB6F894D6
:101BC0000F92F801858D8F3F09F4158EF801868DEF
:101BD0008F3F09F4168E0F900FBEBE016C5F7F4FD2
:101BE000CE0101960E94F30781111CC0C8010E941A
:101BF0008B0A882389F06C817D81C6010E943F0792
:101C0000C8010E94F80A0E942B06882311F081E087
:101C1000A6CF0E942215FBCFC8010E94F80A0E949D
:101C20002B06F5CFC8010E94F80A0E942B06C801B6
:101C30000E948B0A882359F380E00F900F900F9039
:101C40000F900F90DF91CF911F910F91FF90EF9028
:101C5000DF90CF900895EF92FF920F931F93CF9351
:101C6000DF93FC01028D0023E9F07A01EC01158D70
:101C70000E94DE0A01500A8F1F3F81F48885882365
:101C800079F0CE0108960E946607882349F0E11496
:101C9000F10431F081E0F701808305C01F5F1D8FE3
:101CA00081E001C080E0DF91CF911F910F91FF9003
:101CB000EF9008950F931F93CF93DF93FC01228D34
:101CC000222349F0EC01068117810E94DE0A1F835E
:101CD0000E8381E001C080E0DF91CF911F910F91D1
:101CE00008950FB6F8940F92FC01828D0F900FBEED
:101CF00008950FB6F8940F92FC01228D0F900FBE3D
:101D0000838D821B0895FC01828D08950C94FA1135
:101D1000FC01928D81E0911180E00895FC01928D8B
:101D200081E0238D291380E00895CF93DF93EC01A8
:101D3000F8940FB6F8940F928A8D9B8D0F900FBE7A
:101D400089130FC04115510549F0BE01685F7F4FEF
:101D5000CA010E94741078948CEF1BC0789480E0C4
:101D600018C07894F8948A8D891788F440E0CE01E1
:101D70000E94960A8989811102C081E009C0CE01C2
:101D800041960E94A3118823C1F38BEF01C080E02C
:101D90007894DF91CF910895CF93DF93EC01FB010D
:101DA000F8948A8D81110FC04115510549F0BE018B
:101DB0006F5E7F4FCA010E94741078948CEF30C020
:101DC000789480E02DC07894F8948A8D882331F13E
:101DD0004C8D50E02E813F81240F351F3F832E8391
:101DE0008C819D812817390720F0888199819F83F4
:101DF0008E839A8D91509A8F6E817F81CF010E9440
:101E000095168885811102C081E009C0CE0108962F
:101E10000E94A3118823C1F38BEF01C080E0789466
:101E2000DF91CF9108950F931F93CF938C01C42F0F
:101E3000FC01928D838D981710F04C2F12C040E05A
:101E4000C8010E94960AC111F8CFF8018189882340
:101E500039F0C80141960E94A31141E0811101C0EF
:101E600040E0842FCF911F910F9108950F931F93FE
:101E7000CF93DF93FC01828D882379F1248D30E0AC
:101E8000A681B781A20FB31FB783A68384819581F2
:101E9000A817B90720F080819181978386838A01F2
:101EA000CB01EF01428D4150428F66817781A901BC
:101EB0000E949516F8018081882311F081E00EC000
:101EC00088858823D9F3CE0108960E94A311882320
:101ED000A9F381E0F801808301C080E0DF91CF9118
:101EE0001F910F910895FC010396928381832FEF38
:101EF0003FEF348323839683858390878783108283
:101F00000895FC01118610860895CF93DF939C01FC
:101F1000FB01DC011196CD91DC911297D383C28332
:101F20008C819D81958384838C819D81DC011396B6
:101F30007C936E9312977D836C8331872087F901A0
:101F400080818F5F8083DF91CF9108950F931F93DE
:101F5000CF93DF938C01FB01808191818F3F2FEF25
:101F6000920721F4E801AF81B8850EC0D80113961D
:101F700012962D913C911397E9014881598184175C
:101F8000950710F0D901F4CF12968D919C9113977B
:101F900093838283EC01FD83EC83B583A483139642
:101FA000FC93EE93129711870087F80180818F5F71
:101FB0008083DF91CF911F910F910895CF93DF938D
:101FC000FC01A085B1858281938124813581EC015A
:101FD0003D832C83C481D5819B838A8311968D9107
:101FE0009C911297E817F90721F41296DC93CE938F
:101FF0001197118610868C9181508C938C91DF9172
:10200000CF910895CF92DF92EF92FF921F93CF93DB
:10201000DF936C01162FF42E8AE190E00E94C81124
:10202000EC01892B09F457C08091B4019091B5015E
:10203000892B21F5D093B501C093B4018CED91E0CB
:102040000E94730F85EE91E00E94730F83ED91E083
:102050000E94730F8AEC91E00E94730F8DEB91E068
:102060000E94730F83ED91E09093C9018093C801A2
:102070008AEC91E09093C7018093C601111111E0A1
:10208000198E188E1E8BFF8AFE01C192D1927F019C
:10209000CF010E94810FCE010C960E94810FD9873B
:1020A000C887DB8BCA8B82E090E0811B91099D87FA
:1020B0008C878E899091BC01981710F48093BC0195
:1020C000F9E08F9FC0011124B70184529E4F0E94F6
:1020D000850F81E001C08FEFDF91CF911F91FF90BD
:1020E000EF90DF90CF9008950F931F93CF93DF93DE
:1020F0008B01C091BA01D091BB01C80FD91F80914B
:10210000B4019091B50102960E94DE0FE091B401F6
:10211000F091B501D383C2838091BA019091BB0144
:10212000BF016E5F7F4FC817D90728F48091C601A1
:102130009091C70104C08091C8019091C9010E948B
:10214000A60F0115110569F06091B4017091B501F8
:10215000645F7F4FC801DF91CF911F910F910C9465
:10216000A60FDF91CF911F910F910895FF920F93CA
:102170001F93CF93DF9399E0F92E8091BD018823BF
:1021800011F1F894E091C201F091C301C681D781A9
:10219000CE010C960E94DE0F78948E010E5F1F4FC9
:1021A000C8010E94DE0F8E899091BC01981710F42F
:1021B0008093BC01F89EC0011124B80184529E4F47
:1021C0000E94850FDACF0E9460052091B8013091FE
:1021D000B901821B930B9093B7018093B60189E0FC
:1021E000F82E2091B6013091B7018091BA019091FB
:1021F000BB012115310509F454C001969093BB0130
:102200008093BA01215031093093B7012093B60170
:10221000892B09F03EC08091C8019091C90120919D
:10222000C6013091C7013093C9012093C801909332
:10223000C7018093C6012DC00580F681E02DC681BF
:10224000D7812A813B818091BA019091BB0182178D
:10225000930738F2F8948E010E5F1F4FC8010E9459
:10226000DE0F8C899D89892B21F0CE010C960E946E
:10227000DE0F78948E899091BC01981710F48093AA
:10228000BC01F89EC0011124B80184529E4F0E94E7
:10229000850FE091C801F091C90180818111CCCFF7
:1022A000A0CF9093B9018093B8018091BC0169E0FF
:1022B000482F50E0649F9001659F300D1124F90173
:1022C000E452FE4F908191110CC0811108C0109210
:1022D000BC01DF91CF911F910F91FF900895815024
:1022E000E7CF8093BC01A181B28112960D90BC9181
:1022F000A02DB283A18321523E4FA217B30731F420
:1023000012968D919C9113979283818389E0849F8B
:10231000F001859FF00D1124E452FE4F0180F281FF
:10232000E02D868197819093B5018093B401DC0103
:10233000ED91FC91119757966C91DF91CF911F9180
:102340000F91FF9009940F931F93CF93DF93DC01BC
:102350001596ED91FC911697C681D7818E01045F89
:102360001F4FC8010E94DE0FB8018DEB91E00E9463
:10237000850FE091B401F091B50181E02E89968935
:10238000291708F480E0DF91CF911F910F910895F4
:10239000CF93DF93EC010E945A058091EE0190915A
:1023A000EF01892B31F483EF91E09093EF0180935B
:1023B000EE012091F0013091F101C9018C0F9D1FB8
:1023C0008B3D45E0940770F42817390758F4C09105
:1023D000EE01D091EF01C20FD31F9093F1018093D2
:1023E000F00102C0C0E0D0E00E942B06CE01DF91D8
:1023F000CF91089508951092F1011092F00108957F
:102400002091F0013091F1018BED95E0821B930B4F
:1024100008950F931F93CF93DF931F92CDB7DEB72D
:102420008C01FC01808D918D8E36F1E09F07B1F01B
:102430008F3621E0920751F1892B59F54FEF5FEF6D
:10244000BE016F5F7F4F8091CE079091CF070E94B2
:10245000CC0E8C3F71F48EE691E00FC040E050E06E
:10246000BE016F5F7F4F8091CE079091CF070E9492
:10247000CC0E8B3F31F48FE691E0F801918F808F85
:1024800008C0813019F010920501D8CF0E94CD000C
:10249000D5CF0F90DF91CF911F910F9108950F939A
:1024A0001F93CF93DF931F92CDB7DEB78C01698363
:1024B000FC01808D918D8E32F1E09F07D9F018F4E8
:1024C000892B41F03EC08F32E1E09E0739F1823422
:1024D0009140B9F540E050E0BE016F5F7F4F8091C1
:1024E000CE079091CF070E94950E8C3F71F48EE23B
:1024F00091E024C040E050E0BE016F5F7F4F8091CB
:10250000CE079091CF070E94950E8B3F19F48FE272
:1025100091E014C0813011F010920501E981F0E0E2
:10252000EE0FFF1FEA5FFE4F80819181009721F03F
:1025300060E070E00E94741082E491E0F801918FF5
:10254000808F0F90DF91CF911F910F910895CF93BE
:10255000DF93D82F893008F0D8E040E061E081E0D7
:102560000E94750B9093CF078093CE07892B99F02B
:10257000C0E0CD1741F04C2F60E08FE492E10E9463
:102580000210CF5FF6CF40E061E089E092E1DF9199
:10259000CF910C940210DF91CF91089580910501A5
:1025A0000895CF93DF9300D000D0CDB7DEB77C0184
:1025B00000E010E08BE7882E912CA12CB12C97E045
:1025C000492E512C612C712CDD24D39489829A825E
:1025D000AB82BC8289819A81AB81BC81895B9B463D
:1025E000AC4FBF4F89839A83AB83BC8329813A81E7
:1025F0004B815C81ADEFBFEF0E94811669837A83C6
:102600008B839C8369817A818B819C81A301920158
:102610000E94541629833A834B835C8389819A8173
:10262000AB81BC818B319747AE4FBF4F19F001E0B2
:1026300010E0CCCF01151105D1F70FB6F8940F9229
:10264000F701D0820F900FBEC1CFEF92FF920F9390
:10265000E12CF12C082F20ED37E045E550E06BE24E
:1026600071E081ED92E10E94DB030F91FF90EF900A
:10267000089581E09091D007911101C080E01092FF
:10268000D0070895CF93DF9300D0CDB7DEB77C019C
:102690001A82198200E013E020E040E050E0BE0121
:1026A0006F5F7F4FF701808191810E94980B81308D
:1026B00091F401110AC00FB6F8940F928091D307DC
:1026C0008F5F8093D3070F900FBE89819A81019607
:1026D0009A83898301C001E01150F1F683E090E014
:1026E0000E94D506D8CFCF93DF9300D0CDB7DEB709
:1026F0006C01F12C00E010E0F601808191810E94D4
:10270000710E882321F140E050E0BE016F5F7F4FE2
:10271000F601808191810E94810C813069F7898165
:102720009A810817190769F4F1100EC00FB6F894D2
:102730000F928091D4078F5F8093D4070F900FBEC4
:1027400003C08C01FF24F3940F5F1F4FD5CF8FEE92
:102750009FEF0E94D506D0CFEF92FF920F93CF93B9
:10276000C82F40E062E08AE00E94750B9093D20788
:102770008093D107892BB9F0E12CF12C0C2F21ED9E
:1027800037E045E550E063E371E083E793E10E94C1
:10279000DB0321ED37E045E550E06BE371E082E4D7
:1027A00093E10E94DB03CF910F91FF90EF9008958A
:1027B0008091D407882329F09091D30781E091116B
:1027C00001C080E01092D4071092D3070895CF93F0
:1027D000DF931F92CDB7DEB700E011E44FEF5FEF5C
:1027E000BE016F5F7F4F80E090E00E942E01882342
:1027F00029F08981811307C00E94CD001F5F193520
:1028000069F710E001C011E08091D60760E08F5FAA
:102810000E94A900113079F48981883551F04FEF79
:102820005FEFBE016F5F7F4F80E090E00E942E015E
:10283000F3CF0F5FD2CF023084F68091D5078F5F40
:102840008093D507CACF06E910E0C1E440E050E02C
:102850006C2F80E090E00E943A01813011F40E94D8
:10286000CD00CF5FC93591F760E08091D6070E9417
:10287000A9000E9460050396B8010E941E168233CB
:10288000910510F482E390E00E94D506DECFEF922E
:10289000FF920F93CF93C82FCB01BA012093D60795
:1028A00048E10E94E5000FEF0C0FE12CF12C20E035
:1028B00030E045E550E063E471E083E294E10E949A
:1028C000DB030C2F20E030E045E550E069E471E0E7
:1028D00087EE93E10E94DB03CF910F91FF90EF9081
:1028E00008959091D5071092D50781E0911101C00C
:1028F00080E0089531E1FC013083319722E22083AA
:102900003197A3E3A0833197608331977083319728
:102910001082319760E8608331971082319762E0CE
:102920006083319763E06083319764E0608331971F
:1029300065E06083319766E06083319767E060838C
:10294000319768E06083319769E06083319760E197
:10295000608331973083319732E13083319733E1AF
:102960003083319734E13083319735E130833197CB
:1029700036E13083319737E13083319738E1308366
:10298000319739E13083319730E23083319731E24A
:10299000308331972083319723E22083319740831E
:1029A00031975083319726E22083319727E22083A5
:1029B000319728E22083319729E22083319720E361
:1029C0002083319721E320838697089581E08093C7
:1029D000890087E3809388008BE080938100EEE696
:1029E000F0E0808180618083A0915601B091570111
:1029F000CD91CDBFDD91DEBFFF91EF91DF91CF9102
:102A0000BF91AF919F918F917F916F915F914F9106
:102A10003F912F911F910F91FF90EF90DF90CF90FA
:102A2000BF90AF909F908F907F906F905F904F90EE
:102A30003F902F901F900F900FBE0F90089581E050
:102A4000089508950F920FB6F8940F921F921124D3
:102A50002F923F924F925F926F927F928F929F92AE
:102A6000AF92BF92CF92DF92EF92FF920F931F939C
:102A70002F933F934F935F936F937F938F939F9386
:102A8000AF93BF93CF93DF93EF93FF93A091560142
:102A9000B09157010DB60D920EB60D920E94FC0634
:102AA000A0915601B0915701CD91CDBFDD91DEBF10
:102AB000FF91EF91DF91CF91BF91AF919F918F9156
:102AC0007F916F915F914F913F912F911F910F9146
:102AD000FF90EF90DF90CF90BF90AF909F908F903E
:102AE0007F906F905F904F903F902F901F900F902E
:102AF0000FBE0F9008950F920FB6F8940F921F9289
:102B000011242F923F924F925F926F927F928F92F9
:102B10009F92AF92BF92CF92DF92EF92FF920F936C
:102B20001F932F933F934F935F936F937F938F9355
:102B30009F93AF93BF93CF93DF93EF93FF93A091B6
:102B40005601B09157010DB60D920EB60D920E942E
:102B50007A0581110E94FC06A0915601B09157019F
:102B6000CD91CDBFDD91DEBFFF91EF91DF91CF9190
:102B7000BF91AF919F918F917F916F915F914F9195
:102B80003F912F911F910F91FF90EF90DF90CF9089
:102B9000BF90AF909F908F907F906F905F904F907D
:102BA0003F902F901F900F900FBE0F9008950E949E
:102BB0007B151895EF92FF920F93CF93DF931F929F
:102BC000CDB7DEB741E050E060E570E0CE010196A0
:102BD0000E949E1669816F5F698380E590E00E9484
:102BE000AE160E948D0080E00E94251324E040E88C
:102BF00055E260E070E082E00E94471482E00E94AB
:102C0000AC130E942B03E12CF12C03E020E030E018
:102C100045E550E066E171E083E590E00E94DB036A
:102C200083E00E94A7120E942B0580E090E00F90A5
:102C3000DF91CF910F91FF90EF900895AA1BBB1BDE
:102C400051E107C0AA1FBB1FA617B70710F0A61BAC
:102C5000B70B881F991F5A95A9F780959095BC01CD
:102C6000CD010895A1E21A2EAA1BBB1BFD010DC0C8
:102C7000AA1FBB1FEE1FFF1FA217B307E407F5072C
:102C800020F0A21BB30BE40BF50B661F771F881F08
:102C9000991F1A9469F760957095809590959B019E
:102CA000AC01BD01CF010895052E97FB1EF40094E1
:102CB0000E946B1657FD07D00E94321607FC03D006
:102CC0004EF40C946B1650954095309521953F4FDE
:102CD0004F4F5F4F089590958095709561957F4F08
:102CE0008F4F9F4F08950E948616A59F900DB49F09
:102CF000900DA49F800D911D11240895B7FF0C9491
:102D000073160E947316821B930B0895A29FB00145
:102D1000B39FC001A39F700D811D1124911DB29F0F
:102D2000700D811D1124911D0895FB01DC0102C06D
:102D300001900D9241505040D8F70895DC01CB012D
:102D4000FC01F999FECF06C0F2BDE1BDF89A3196BB
:102D500000B40D9241505040B8F70895262FF999CC
:102D6000FECF1FBA92BD81BD20BD0FB6F894FA9A6E
:0C2D7000F99A0FBE01960895F894FFCF69
:102D7C0003000000FF019600C800FA002C015E0160
:102D8C009001C201F401436865636B0052656731C1
:102D9C0000526567320049444C4500496E744D61E0
:102DAC0074680051436F6E734E42005150726F64E1
:102DBC004E4200434F4D547800434F4D5278000023
:00000001FF
